S01D00004652454552544F535F53414D5F4558414D504C45312E73726563C1
S214400000982C4020390B4000350B4000350B400003
S214400010350B4000350B4000350B4000000000001B
S214400020000000000000000000000000F50E400048
S214400030350B400000000000910F4000F90F4000D3
S214400040350B4000350B4000E92E4000B52E4000F1
S214400050350B4000350B4000350B4000350B40005B
S214400060350B40000000000051074000610740008B
S21440007071074000350B4000350B4000350B400003
S2144000808107400091074000350B4000350B40008B
S214400090350B4000350B4000350B4000350B40001B
S2144000A065324000350B4000350B4000350B4000B4
S2144000B0350B4000350B4000350B4000350B4000FB
S2144000C0350B4000350B4000350B4000350B4000EB
S2144000D000000000350B400000000000350B4000DB
S2144000E0350B4000350B4000350B4000350B4000CB
S2144000F0350B4000350B4000350B40008D3240003C
S214400100350B4000350B4000350B4000350B4000AA
S214400110350B40000000000000000000000000001A
S214400120350B4000350B4000350B4000350B40008A
S214400130350B400000000000350B4000350B4000FA
S21440014010B5054C237833B9044B13B10448AFF3CC
S21440015000800123237010BDD0094020000000001D
S214400160047040000C4B43B10C480D4910B5AFF33A
S21440017000800C48036823B910BD0A48036833B9A9
S2144001807047094B002BF7D0BDE810401847064B88
S214400190002BF5D0184700BF000000000470400058
S2144001A0D4094020047040000000000070B510489C
S2144001B0104DA8473E2100200F4B104C9847A047B3
S2144001C00028FCD00E4B98470E4C0F4B0F4A9A62B5
S2144001D0A0470028FCD002200D4B98470D4B00202E
S2144001E098470D4B98472B460148BDE87040184746
S2144001F000A3E111DD0C40002508400079084000CE
S214400200890840009908400000060E40013F18202B
S214400210A1074000D1074000F90B40002DE9F0410E
S21440022090B9002A90460DDD0C468F18084E094DB1
S2144002302146013430682B689847BC42F8D1404686
S214400240BDE8F0818046FAE74FF0FF38F7E700BF99
S2144002500C0C4020040C4020013802281ED82DE902
S214400260F0411546BAB10E460C46DFF83C800D4FBD
S21440027001E0013D0DD014F8011BD8F800003B68A2
S21440028098470028A4EB0600F3DA4FF0FF30BDE8AD
S214400290F081BDE8F0811046BDE8F0814FF0FF30B8
S2144002A0704700BF080C40200C0C4020F8B54FF4B7
S2144002B000425A4B5A60BFF34F8FBFF36F8F584C74
S2144002C00023C4F85032636943F400336361BFF3DC
S2144002D04F8FBFF36F8FD4F8803003F00706C3F319
S2144002E04E3EC3F3C90C0436BCFA8CF303F01F032E
S2144002F0BFF34F8F4FF0FF350EFA06F00CFA03F7B8
S21440030005FA06F69D403A46634640EA0201013B3E
S2144003102A44C4F86012591CF7D10EF1FF3E30440F
S214400320BEF1FF3FEFD1BFF34F8F636943F4803395
S2144003306361BFF34F8FBFF36F8F3A4B3A493B4AE7
S21440034059605A60BFF34F8FBFF36F8FD4F8903227
S21440035023F00103C4F89032D4F8943223F001031A
S214400360C4F89432BFF34F8FBFF36F8F304C0A20E0
S214400370A0470B20A0470C20A0471020A0471120E4
S214400380A0474FF480752B4A4FF400632A494FF438
S21440039000142A4E10200D61A1F50071C1F8A0523C
S2144003A0C1F830525361C2F8A0305366C2F890305C
S2144003B053651362C2F88430156F25F400651567DF
S2144003C0556F25F400655567C2F8C030C2F8D43082
S2144003D0C2F8B0301466C2F8904054655462C2F811
S2144003E08040136F23F400131367536F23F40013F6
S2144003F053675460D6F814310343C6F81431086680
S214400400C1F8900048654862C1F880000B6F03430E
S2144004100B674B6F03434B674860F8BD50180E4060
S21440042000ED00E0000C0E400C08005A0C07005A85
S214400430A9084000000E0E4000120E400080084002
S2144004400AB9016670474166704700BF52004FF4D4
S2144004500043C0F88410B3FBF2F3013BC3F30D0333
S214400460C0F88C30704700BF0163704741637047E7
S214400470B1F1C05F426434D010D8B1F1006F1CD0E7
S214400480B1F1805F2AD1036F13430367436F416F17
S2144004900B4023EA0203436742607047B1F1205F96
S2144004A01BD029D8B1F1005FF6D1036F1343036721
S2144004B0436F1343436742607047016FD34310B4A2
S2144004C0046F21401C4619400167436F416F0B4043
S2144004D023405DF8044B4367426070470029DBD1F8
S2144004E07047036F016F0B4023EA02030367436FB5
S2144004F01343436742607047B1F1405FEDD0B1F1BE
S214400500605FEAD0C8E700BFD307416415D54166AF
S21440051012F00A0F09D09307016209D4130701D5D8
S214400520C0F8841041610160704793074162F5D579
S214400530C0F880104161016070470166E8E700BF7F
S21440054010B4019C416494B141663BB1016542B927
S21440055041635DF8044B0161016070474165002AC4
S214400560F6D001635DF8044B016101607047016697
S214400570EBE700BFB1F1005F70B537D02DD9B1F1D0
S214400580405F19D0B1F1605F16D0B1F1205F02D064
S2144005900023184670BDDD07426436D413F00A0FB8
S2144005A0026636D09C07026236D5C0F8802001230A
S2144005B042610260184670BD03F00404DB074264E3
S2144005C01ED54266FCB10265B1F1605F2DD0426334
S2144005D0012302610260184670BDB1F1805F05D00C
S2144005E0B1F1C05F02D0B1F1006FD1D11E46104BC1
S2144005F004469847F60714D501236266184670BD30
S2144006000266002CDFD14265DEE713F00A0F426631
S214400610C8D19C074262C8D41907C8D5C0F8842000
S214400620C5E701232266184670BD0263D0E700BFC7
S21440063071044000836B0B4214BF012000207047BA
S21440064001647047C06C7047806C7047D3060AD50B
S2144006509306C0F8B01009D45306C0F8D01009D598
S214400660C0F8C0107047C0F8B41070475306C0F8C2
S214400670D410F5D4C0F8C410704700BF004B1847DC
S2144006804D064000F8B504460F4B0F4698470646C1
S2144006900E4B20469847064015D00D4C002504E0EA
S2144006A0072D04F110040ED06EB123680135BB420D
S2144006B0F6D161683142F3D0E368384698476368BC
S2144006C026EA0306ECE7F8BD45064000490640002A
S2144006D0EC0940202DE9F047DFF87090D9F800C0CB
S2144006E0BCF1060F2BD84FF00008164E444602E0E9
S2144006F0A445A0460CD3250104F1010EA246775925
S2144007005FFA8EF435448F42F2D16D689542EFD150
S2144007104FEA0A1A0CF1010C06EB0A0446F80A10D6
S2144007200899C4456260A360E16011461A46064BCC
S21440073008BFC9F8008098470020BDE8F087012030
S214400740BDE8F087EC0940207D0640005C0A40206A
S2144007500A210148014B1847000E0E40850640000E
S2144007600B210148014B184700100E4085064000FB
S2144007700C210148014B184700120E4085064000E8
S21440078010210148014B184700140E4085064000D2
S21440079011210148014B184700160E4085064000BF
S2144007A0023802280DD8084B53F8200007490B6B37
S2144007B00A4623F4407303430B63936E1B07FCD532
S2144007C070470020F2E700BFC86D400000060E40AC
S2144007D013490B6B23F07003184308638B6E18079E
S2144007E007D44FF4805301E0013B16D08A6E1207BF
S2144007F0FAD50B490B6B23F0030343F002030B635C
S2144008008B6E180707D44FF4805301E0013B04D0A9
S2144008108A6E1207FAD5002070470120704700BF45
S21440082000060E40A0B90E4B09020E4889B21A4681
S21440083030B40D4C1D6A2C40204301431962936E20
S214400840DB07FCD5116A094B0B43136230BC70477B
S2144008500349074A086A074B024013430B62704736
S21440086000060E4001003700FCFFC8FF00003701BD
S214400870FCFFC8FE02003701024B986E00F4803041
S214400880704700BF00060E40024B4FF000529A627F
S214400890704700BF00060E40024B986E00F0020004
S2144008A0704700BF00060E403F281AD81F280AD8B7
S2144008B001230E4A03FA00F0916930EA010312D090
S2144008C010610020704701232038084A03FA00F0E0
S2144008D0D2F8083130EA030305D0C2F80001002000
S2144008E07047012070470020704700BF00060E404A
S2144008F080697047C1617047044B024600201B6800
S21440090043F4802319431160704700BF600A4020BB
S21440091041B9094902680B6823F080731A430B609B
S21440092002607047044902680B6843F080731A43BC
S2144009300B600260704700BF600A40200368034AAD
S21440094023EA01011268114301607047600A4020A3
S214400950826883689A4203D0826883689342FBD158
S21440096018467047C0687047890130B4431802255E
S2144009704FF0FF3445509C62196A5A6030BC70474D
S214400980890105234350704789010223435070472D
S21440099000EB8111CA61704700EB81114A627047D3
S2144009A000EB8111086A7047F0B5022587B04FF01A
S2144009B0080E20272E46019580250C9CCDF808E091
S2144009C00DF1040E0495E40B039705940024B1FB47
S2144009D0F6F585424FEA15470CD387420DD90134C8
S2144009E0052C07D05EF82460B1FBF6F585424FEA49
S2144009F01547F2D2002007B0F0BD02B116601BB119
S214400A0001201C6007B0F0BD0120F4E743699B0756
S214400A1002D5C16100207047012070474369DB075B
S214400A2003D5836900200B7070470120704700BFD4
S214400A300B01934210B414D859084FF6FE7401EBDC
S214400A40C202B2FBF3F2D308591EA14215D81204D3
S214400A50002102F4E0221A43026208465DF8044B85
S214400A607047C9004FF6FE744B0803EBC202B2FB58
S214400A70F1F2D308591EA14204D901215DF8044B76
S214400A8008467047416841F400214160DFE700BFF7
S214400A90F8B50024144D4FF480764FF0880E242786
S214400AA0C0F8E45044604FF4002544628462C0F8C5
S214400AB000E0076006600D4E0560346089B10D4663
S214400AC00B4B09680446984758B96A68AB682F6963
S214400AD01343E96862683B430B431A4333606260E2
S214400AE0F8BD0120F8BD00BF00415355640A4020C0
S214400AF0310A400040230360704700BF1023036064
S214400B00704700BF42690346920704D5C1F3080107
S214400B100020D96170470120704700BF4369DB075A
S214400B2005D583690020C3F308030B607047012096
S214400B30704700BFFEE700BF2449254A914200B5F2
S214400B4083B00ED0234882420BD2D343034423F0D3
S214400B5003030433134451F8040B42F8040B9A423F
S214400B60F9D11D4A1D498A420AD2D34300200B447C
S214400B7023F003030433134442F8040B9A42FBD198
S214400B80174B184A23F07F039360EFF31083B3FAB2
S214400B9083F35B09019372B6BFF35F8F124A00235B
S214400BA01249137001980B6843F470030B60BFF34F
S214400BB04F8FBFF36F8F20B101231370BFF35F8F4A
S214400BC062B60B4B98470B4B9847FEE704704000C5
S214400BD000004020D0094020D0094020980C4020FA
S214400BE00000400000ED00E00A00402088ED00E0F4
S214400BF03941400081334000314A136B03F0030310
S214400C00012B3DD026D3022B0DD02E490B682C4805
S214400C10026B02F07002702A2CD0026BC2F30212F2
S214400C20D3400B607047136A2649DB0138D5264B04
S214400C300B602348026B02F00302022AE7D1826A65
S214400C40806AC2F30A42C0B202FB0333B3FBF0F33E
S214400C500B60DCE71D4B1B495B6919481B064CBF04
S214400C604FF400434FF4FA430B60026B02F07002FD
S214400C70702AD2D1164AA2FB03235B080B6070474A
S214400C80136A1049D80108D4124B0B60126A02F05E
S214400C907002102A11D0202AB9D10B4B0B60B6E750
S214400CA00C4B0B60126A02F07002102A02D0202A07
S214400CB0BDD0BEE7084B0B60BBE7074B0B60A6E713
S214400CC000060E400C004020001BB70010180E40D7
S214400CD0ABAAAAAA00093D0000127A00164B984219
S214400CE017D9164B984210D9154B98421AD9154B1E
S214400CF0984213D9144B984218D9144B9842144B27
S214400D0094BF144A144A1A607047114B134A1A602B
S214400D1070470F4B4FF080621A6070470C4B104A7A
S214400D201A6070470A4B0F4A1A607047084B4FF0DC
S214400D3004221A60704700BFBFF35E017FE7BD0222
S214400D403FDB1C04FFCE7B05BFC2DA067FB6390800
S214400D50000C0E40000500040006000400010004DC
S214400D6000030004000200040D4A0E49136843B114
S214400D701844814202DB1060184670474FF0FF303F
S214400D80704710B4084C20441460814204DB106065
S214400D9020465DF8044B70474FF0FF30F9E700BF40
S214400DA0680A4020FCFF4520982E40204FF0FF3038
S214400DB0704700BF4FF4005300204B60704700BFA1
S214400DC0012070470020704700F108034FF0FF31C4
S214400DD000228160C360036180E80C00704700BF5A
S214400DE000230361704700BF43684B609A688A607F
S214400DF09A685160996008610368013303607047E0
S214400E0030B40D686B1C11D000F1080200E01A46A1
S214400E1053681C68A542FAD24B6099608A6051605C
S214400E2008610368013330BC036070470269536849
S214400E30F2E700BF42688168036991608268416852
S214400E4051605A68904205D0002202611868013805
S214400E501860704782685A60F6E700BF0C4B1B6804
S214400E6001330AD04FF0800372B683F31188BFF384
S214400E706F8FBFF34F8F62B6FEE74FF0800372B6B8
S214400E8083F31188BFF36F8FBFF34F8F62B6FEE7D1
S214400E901000402006480068006880F3088862B664
S214400EA061B6BFF34F8FBFF36F8F00DF00BF000008
S214400EB008ED00E0DFF80C00016841F470010160C5
S214400EC07047000088ED00E070B403464FF080762F
S214400ED0074D6FF0020440F8081C443843F8202CB5
S214400EE043F8046C43F80C5C43F8244C70BC7047E1
S214400EF05D0E4000064B19680868B0E8F04F80F376
S214400F000988BFF36F8F4FF0000080F31188704759
S214400F10740A4020704700BF4FF0800372B683F3D8
S214400F201188BFF36F8FBFF34F8F62B60B4A1368BB
S214400F300133012B136000D07047094B1B6813F038
S214400F40FF0FF9D04FF0800372B683F31188BFF3DA
S214400F506F8FBFF34F8F62B6FEE700BF1000402092
S214400F6004ED00E0094A136853B94FF0800372B6A7
S214400F7083F31188BFF36F8FBFF34F8F62B6FEE7E0
S214400F80013B13600BB983F3118870471000402073
S214400F90EFF30980BFF36F8F154B1A681EF0100FE2
S214400FA008BF20ED108A20E9F04F10604DF8043D50
S214400FB04FF0800072B680F31188BFF34F8FBFF3B7
S214400FC06F8F62B601F022F94FF0000080F311886F
S214400FD008BC19680868B0E8F04F1EF0100F08BF4C
S214400FE0B0EC108A80F30988BFF36F8F704700BF5C
S214400FF0740A4020704700BF08B5EFF311834FF0E6
S214401000800272B682F31188BFF36F8FBFF34F8FA3
S21440101062B6054B984718B1044B4FF080521A60A1
S214401020002383F3118808BD3D1E400004ED00E018
S214401030034907220348044B08601A60704700BF04
S21440104014E000E0BF27090010E000E0234B072231
S214401050234830B5197883B0FF25224CC9B2019198
S2144010601D701B780260DBB28DF803309DF80330AC
S2144010709DF8031003F08003090623700DD5062261
S21440108000E00A469DF80330511E5B00DBB28DF847
S21440109003309DF803301B06F3D401991202124B1D
S2144010A002F4E062C9B20D4C026021701A680F4922
S2144010B042F460021A601A6842F060421A6088473A
S2144010C00B4A00210B4B116098470B4A0B4913689B
S2144010D043F0404313608847094B984700E400E0DC
S2144010E0700A40206C0A402020ED00E0311040009D
S2144010F010004020B50E400034EF00E0950E400052
S2144011005D0E4000EFF305830F2B10D91249134AAA
S2144011105B5C12789A420AD94FF0800372B683F32A
S2144011201188BFF36F8FBFF34F8F62B6FEE70C4B4D
S2144011300C4A1B68126803F4E06393420AD94FF0E6
S214401140800372B683F31188BFF36F8FBFF34F8F60
S21440115062B6FEE7704700BFF0E300E06C0A40204E
S2144011600CED00E0700A402010B50446074B984747
S214401170074B204698470446064B98470CB12046F6
S21440118010BD054B9847204610BD00BF211E4000AD
S214401190B1414000B11F40004D32400050B1064BB7
S2144011A010B504469847054B20469847044BBDE883
S2144011B010401847704700BF211E4000C141400004
S2144011C0B11F400038B51546026C044642B9056862
S2144011D00DB1002029E04068164B9847656024E032
S2144011E0154B65B980689847A368216C62680B44C4
S2144011F09342A360EDD323682846A36015E0C068F9
S2144012009847236CE2685B4221681A448A42E2604F
S21440121002D262681344E360022DDAD1A36B002B3E
S214401220D7D0A36B0020013BA363A36B0133A3631A
S21440123038BD00BFE92540003147400030B583B097
S214401240446D0190ACB1A26BE36B9A420AD34FF067
S214401250800372B683F31188BFF36F8FBFF34F8F4F
S21440126062B6FEE7A26B93420ED80025284603B02E
S21440127030BD4FF0800372B683F31188BFF36F8F93
S214401280BFF34F8F62B6FEE70A460D4B01A92046D4
S2144012909847A36C0546013305D0A36C2846013316
S2144012A0A36403B030BD636A002BDFD004F1240092
S2144012B0044B9847002818BF0125284603B030BD88
S2144012C0C5114000C5234000026C034672B1084673
S2144012D010B4D9685C681144A142D96001D319683A
S2144012E0D960D9685DF8044B014B1847704700BF7A
S2144012F0314740002DE9F0410446DFF89C80C04766
S214401300A36C002B1ADD204D204F214E08E0A84745
S214401310012811D0A36C013BA364A36C002B0DDD08
S214401320636D00212046002BF1D1636A04F124004E
S21440133023B1B0470028EDD0B847EBE74FF0FF3376
S214401340144FA364B847C047636C002B15DD236970
S2144013509BB104F110060E4DDFF8308007E0636C59
S214401360013B6364636C002B07DD23692BB1304679
S214401370A8470028F3D0C047F1E74FF0FF33636437
S2144013803B46BDE8F04118473D1240001525400059
S214401390C5234000650F4000190F40004FF0800302
S2144013A072B683F31188BFF36F8FBFF34F8F62B669
S2144013B0FEE7000070B5D8B104461D4B0E46984770
S2144013C0206C4FF0FF35E36B0021226803FB00F3EF
S2144013D0A260181A1344A163024465646360E26025
S2144013E0A564CEB923692BB9124B9847012070BD2E
S2144013F0114B984704F11000104B98470128F3D141
S2144014000F4B4FF080521A60BFF34F8FBFF36F8F72
S214401410084B9847012070BD04F11000094DA847BD
S21440142004F12400A847034B9847012070BD00BF35
S214401430190F4000650F40009D134000C523400033
S21440144004ED00E0C90D4000F8B550B94FF08003F8
S21440145072B683F31188BFF36F8FBFF34F8F62B6B8
S214401460FEE7064617460D46A9B101FB00F00E4BB7
S214401470593098470446A8B100F158030360E66324
S214401480012125642046094B9847002384F8507074
S21440149020466365F8BD5820034B9847044608B17C
S2144014A02460ECE7024B984769114000B5134000B2
S2144014B09D1340002DE9F04F85B00192002800F0C2
S2144014C0B780002900F09E80022B00F08C801E46DC
S2144014D0634B04468846984710B9019B002B6AD157
S2144014E0A6F102054FF0000ADFF8A091B5FA85F59F
S2144014F05C4FDFF89CB16D0922E00DF1080AB84751
S214401500594B9847C847636C013300F0A680A36CDC
S214401510013300F09F80B847504601A9534B984787
S214401520002840F09080C847A26BE36B9A4217D0E1
S214401530B8474F4B204698474E4B98474FF0010AC6
S214401540C847A26BE36B9A4225D325BB019BEBB100
S214401550BAF1000FD1D10DF1080A5046D847CEE770
S214401560B847019904F11000434B9847404B20463A
S2144015709847404B98470028E0D14FF080533F4A69
S2144015801360BFF34F8FBFF36F8FD7E7B847284638
S21440159005B0BDE8F08F3A4B414632462046984764
S2144015A0636D9BB131462046364B9847012811D093
S2144015B0B8470120ECE74FF0800372B683F31188FA
S2144015C0BFF36F8FBFF34F8F62B6FEE7636A43BBCE
S2144015D00028EDD0294B4FF080521A60BFF34F8F52
S2144015E0BFF36F8FE4E7C26B012A3FF470AF4FF052
S2144015F0800372B683F31188BFF36F8FBFF34F8FAC
S21440160062B6FEE7026C002A3FF45EAF4FF08003FE
S21440161072B683F31188BFF36F8FBFF34F8F62B6F6
S214401620FEE704F12400184B98470128C0D1D1E7C3
S2144016304FF0800372B683F31188BFF36F8FBFF30A
S2144016404F8F62B6FEE72046094B9847094B9847AE
S21440165000209DE70023A3645DE70023636456E70C
S21440166021254000650F4000211E40007D2440009B
S214401670F5124000B11F4000BD22400004ED00E0DE
S214401680C51140003D124000C5234000190F4000E0
S2144016905924400028B32DE9F041002947D0022BB9
S2144016A037D01D46374B044690460E469847EFF3D4
S2144016B011874FF0800372B683F31188BFF36F8FA4
S2144016C0BFF34F8F62B6A26BE36B9A4214D3A5F179
S2144016D00200B0FA80F0400970B987F31188BDE87F
S2144016E0F0814FF0800372B683F31188BFF36F8F9B
S2144016F0BFF34F8F62B6FEE7234B31462A4620465D
S2144017009847A36C013320D0A36C01200344A36404
S214401710E3E7C46B012CC4D04FF0800372B683F36A
S2144017201188BFF36F8FBFF34F8F62B6FEE7046C2E
S214401730002CB4D04FF0800372B683F31188BFF309
S2144017406F8FBFF34F8F62B6FEE7636D63B1294676
S21440175020460E4B9847012808D1B8F1000F05D017
S2144017600120C8F80000B8E7636A0BB90120B4E767
S21440177004F12400064B9847B8F1000FF6D0002835
S214401780EED1F3E705114000C51140003D12400080
S214401790C5234000002831D0036C53B14FF080037E
S2144017A072B683F31188BFF36F8FBFF34F8F62B665
S2144017B0FEE70368002B3AD0294B70B504460D4629
S2144017C09847EFF311864FF0800372B683F3118883
S2144017D0BFF36F8FBFF34F8F62B6A26BE36B9A4235
S2144017E023D2A36B0133A363A36C013311D0A36C44
S2144017F001200344A36486F3118870BD4FF0800334
S21440180072B683F31188BFF36F8FBFF34F8F62B604
S214401810FEE7636DCBB120460021124B9847012866
S2144018201CD1DDB101202860E5E70020E3E74368EE
S214401830002BC1D04FF0800372B683F31188BFF3FC
S2144018406F8FBFF34F8F62B6FEE7636A33B104F122
S2144018502400054B98470DB10028E3D10120CAE784
S214401860051140003D124000C52340002DE9F04FD1
S21440187087B00392002866D0002900F0AF8001931D
S21440188004465E4B0F46984760B9039B5BB14FF0EA
S214401890800372B683F31188BFF36F8FBFF34F8F09
S2144018A062B6FEE70023564E564DDFF880B1DFF8AD
S2144018B080A1DFF8749106E0A847534B204698472E
S2144018C0524B984701230293B047A26B029B002AD3
S2144018D056D1DDF80C80B8F1000F4ED00DF110084F
S2144018E00BB94046D847A847D047B047636C01334A
S2144018F001D100236364A36C013301D10023A364A8
S214401900A847404603A9424B984700282CD1B047E9
S214401910A36B002BD0D1A8472368FBB1039904F1F1
S21440192024003C4B9847384B20469847374B9847BF
S2144019300028C7D14FF08053C9F80030BFF34F8F0F
S214401940BFF36F8FBEE74FF0800372B683F3118804
S214401950BFF36F8FBFF34F8F62B6FEE7B047606846
S2144019602D4B9847A847D9E72046274B9847274B03
S2144019709847002007B0BDE8F08FA8474046F9E7F3
S214401980264B39462046E6689847019B63B9A36BC9
S2144019902268013BA36312B9214B984760602369D4
S2144019A0ABB9A8470120E5E7636AE660002BF8D0AC
S2144019B004F124001B4B98470028F2D01A4B4FF0F6
S2144019C080521A60BFF34F8FBFF36F8FE9E704F181
S2144019D01000144B98470128E3D1EFE7026C002A29
S2144019E03FF44DAF4FF0800372B683F31188BFF3D8
S2144019F06F8FBFF34F8F62B6FEE700BF21254000D2
S214401A00190F4000650F4000F5124000B11F40001E
S214401A107D244000BD22400041254000C9124000C0
S214401A20B1264000C523400004ED00E059244000A4
S214401A30211E40000023084A30B452F8334002EBDF
S214401A40C30524B10133082BF7D130BC704742F8A8
S214401A503310686030BC7047100C402070B50446A8
S214401A600F4B0D4616469847636C013314D0A36C53
S214401A7001330ED00B4B9847A36B2BB93246294601
S214401A8004F12400084B98472046084BBDE87040B8
S214401A9018470023A364EDE700236364E7E700BF2D
S214401AA0190F4000650F400041234000F5124000EA
S214401AB0034A044B1268D268D26852681A6070476C
S214401AC0780A4020240B40200D4B0E4A19681268B5
S214401AD0486090420DD30C490C4A10B5044608683D
S214401AE01968043190470A4B1A68944200D21C6029
S214401AF010BD0849054A086819680431104700BFF8
S214401B00740A40206C0B4020780A4020010E4000AA
S214401B10240B40207C0A40202DE9F84F0C9E80463E
S214401B200D4692469946002E00F09680644C58200A
S214401B30A0470446002800F09A804FEA8A0A0663C7
S214401B40A521604B524630469847AAF1040A206BBE
S214401B506B1E05F1090104F1330582442AF0070A99
S214401B605A7805F8012F13F8012F0AB19942F7D198
S214401B700A9D002704F1040B534E042D84F83D7053
S214401B805846E76428BF0425E562A564C5F1050507
S214401B90B04704F11800B04727654C4B4A46A5614C
S214401BA0414684F8547050462461646298470B9BC3
S214401BB0206003B11C60464B9847464A464E136821
S214401BC0013313603368002B3FD0DFF84C81D8F8E0
S214401BD000302BB933680A9ADB6A9A4200D33460E5
S214401BE0DFF838E10125DFF838C15946E06ADCF80D
S214401BF00090DEF8002005FA00F300EB800043EA90
S214401C0009032A44DFF8E890CEF80020226409EB66
S214401C108000324ACCF800309047314B9847D8F88D
S214401C2000307BB133680A9ADB6A9A420AD92D4B58
S214401C304FF080521A60BFF34F8FBFF36F8F284626
S214401C40BDE8F88F2846BDE8F88F34601368012B4E
S214401C5014D0DFF8C480C3E79000194CA04706466E
S214401C6000287FF464AF4FF0FF30BDE8F88F304671
S214401C701D4B98474FF0FF30BDE8F88F1B4D1C4872
S214401C80A8471C48A8471C48A847DFF898801B4828
S214401C90A847DFF894901A48A8474046A8474846C1
S214401CA0A8471848A8471848A8471848A847184AB1
S214401CB0184BC2F80080DFF86080C3F800908FE7CA
S214401CC06911400065484000E10D4000C90E4000E3
S214401CD0190F4000E40A4020740A4020E90D4000F5
S214401CE0650F400004ED00E09D114000C90D400026
S214401CF0800A4020940A4020A80A4020BC0A40207F
S214401D00D00A40202C0B4020580B4020440B40204B
S214401D10780A40207C0A4020400B4020F00A4020B1
S214401D20F80A4020FC0A4020100B40204FF0800369
S214401D3072B683F31188BFF36F8FBFF34F8F62B6CF
S214401D40FEE700BF70B403AC70CC60B1042C15D96C
S214401D504FF0800372B683F31188BFF36F8FBFF3E3
S214401D604F8F62B6FEE74FF0800372B683F311885A
S214401D70BFF36F8FBFF34F8F62B6FEE70394034CFB
S214401D8005960495A44670BC604700BF191B4000EA
S214401D9070B5002484B082221949029423460194E7
S214401DA000941848184DA84701280DD050B94FF058
S214401DB0800372B683F31188BFF36F8FBFF34F8FE4
S214401DC062B6FEE704B070BD104B98470128EDD1CF
S214401DD04FF0800372B683F31188BFF36F8FBFF363
S214401DE04F8F62B60A4D4FF0FF360A490A4A0B4BF0
S214401DF02E600860146004B0BDE87040184700BF0D
S214401E00D46D400061214000191B4000A1274000CE
S214401E10240B4020400B40206C0B40204D104000CF
S214401E20024A136801331360704700BFEC0A402033
S214401E30014B1868704700BF6C0B40202DE9F84FE7
S214401E404C4B1B68002B70D14B4B1A6801321A6002
S214401E501E68002E5AD0DFF850A1DAF80020002481
S214401E6096426AD3454D464FDFF840812FE02A68B8
S214401E70D268D2F80C90D9F8041009F1040B8E42BF
S214401E8058466DD33F4B9847D9F8281009F11800AB
S214401E9009B13C4B9847D9F82C004FF0010E3A4B0D
S214401EA059460EFA00FE00EB80001B6807EB8000E8
S214401EB04EEA030E344BC3F800E0344B9847D8F84C
S214401EC00000D9F82C10C26A914228BF01242A6823
S214401ED01268002ACBD14FF0FF32CAF80020D8F85B
S214401EE000302B4ADB6A126803EB830357F8233033
S214401EF0022B28BF01240AB9264B9847264B1B685D
S214401F00002B18BF01242046BDE8F88F1B4D2B68D8
S214401F101B68B3B14FF0800372B683F31188BFF3EA
S214401F206F8FBFF34F8F62B6FEE7194A00241949F8
S214401F301368013313608847E0E7114FDFF86C8081
S214401F40CDE7164B2968164A18682860196013684A
S214401F50013313602B681B682BB1124B98477AE706
S214401F60CAF80010BBE7DFF840A04FF0FF32CAF8CF
S214401F70002072E7EC0A40206C0B4020780A402094
S214401F80800A4020350E4000F80A4020E90D400007
S214401F90E80A402049324000700B40207C0A40202E
S214401FA0280B4020B11A4000240B4020740A4020E1
S214401FB02DE9F04F384C83B0236853B94FF0800377
S214401FC072B683F31188BFF36F8FBFF34F8F62B63D
S214401FD0FEE7324B98472368013B23602368002B7B
S214401FE037D12F4B1B68002B33D0DFF8D8B02D4BA2
S214401FF02D4E2E4DDFF8D0A0DFF8D0901EE0DA68E8
S2144020000193D46804F1040804F11800B047404630
S214402010B047E06AD5F800E0414607FA00F200EB28
S214402020800042EA0E020AEB80002A60C847204A37
S214402030E16A1268019BD26A914211D21A6801275E
S214402040002ADCD11B4C23686BB9DBF80040012C1E
S21440205019D00024184B9847204603B0BDE8F08FAF
S214402060CBF80070EAE72368002BEED0134E01252C
S214402070B04708B1CBF800502368013B2360236883
S214402080002BF5D1E1E70E4B4FF080521A60BFF3BC
S2144020904F8FBFF36F8FDDE7EC0A4020190F4000EB
S2144020A0E40A40202C0B4020350E4000F80A402021
S2144020B0740A4020E80A4020650F40003D1E40005C
S2144020C004ED00E0700B4020800A4020E90D4000FF
S2144020D038B568B11A4B1A689AB14FF0800372B699
S2144020E083F31188BFF36F8FBFF34F8F62B6FEE75F
S2144020F0144B4FF080521A60BFF34F8FBFF36F8F71
S21440210038BD1A680446104D1048013210491A600E
S214402110036828681C440430884740B92B6801226D
S2144021200C49D86A0B68824023EA02030B600A4BCC
S21440213020469847094B98470028D9D038BD00BF5D
S214402140EC0A402004ED00E0740A40206C0B40206E
S214402150350E4000F80A4020C91A4000B11F400022
S2144021602DE988481E4C1F4E1F4FDFF89490DFF82D
S21440217094801E4DDFF890A008E02368D6F800B0A3
S21440218001332360B847BBF1000F0FD12B68002BFB
S214402190F3D1DAF80030012BF8D9154B4FF08052C6
S2144021A01A60BFF34F8FBFF36F8FEFE7114B98471F
S2144021B0F368D3F80CB0104B0BF104009847D9F8ED
S2144021C00030013BC9F800302B68013B2B600B4BBD
S2144021D09847DBF83000C0475846C047D6E700BFB0
S2144021E0EC0A4020580B4020B11F4000F40A402023
S2144021F004ED00E0190F4000350E4000650F40002A
S214402200E40A40209D114000800A4020254B1B6870
S214402210002B35D1244A10B5244C136023681B6B21
S2144022201A68B2F1A53F03D15A68B2F1A53F2BD048
S214402230206821681E4B343198471E4B1B68B3FA02
S21440224083F3DBB21C4AC3F11F0303EB83039B00FB
S214402250D058D11850B94FF0800372B683F3118826
S214402260BFF36F8FBFF34F8F62B6FEE70833486801
S2144022701A44436893424B600FD0DB68236010BD1E
S214402280094B01221A6070479A68B2F1A53FCFD138
S214402290DB68B3F1A53FCBD1CFE75B684B60DB682B
S2144022A0236010BDEC0A4020700B4020740A40208A
S2144022B031324000F80A4020800A4020E8B1184BEE
S2144022C070B5184D0C462968183198472868164B43
S2144022D00430984740B92B6801221449D86A0B68E5
S2144022E0824023EA02030B60631C11D0104A114B54
S2144022F010682044BDE8704018474FF0800372B61F
S21440230083F31188BFF36F8FBFF34F8F62B6FEE73C
S214402310296809480431094BBDE87040184700BF9A
S214402320010E4000740A4020350E4000F80A402056
S2144023306C0B4020C91A4000440B4020E90D400079
S214402340F8B12DE9F041184C0D46184F1646216855
S2144023501831B8472068164B0430984740B9236870
S21440236001221449D86A0B68824023EA02030B60B4
S214402370012E11D0104A114B10682844BDE8F04198
S21440238018474FF0800372B683F31188BFF36F8F00
S214402390BFF34F8F62B6FEE721683B4608480431DC
S2144023A0BDE8F041184700BF740A4020E90D4000E0
S2144023B0350E4000F80A40206C0B4020C91A4000F9
S2144023C0440B4020F8B5C368DC681CB304F118051C
S2144023D0194F2846B847194B1B6843BB261D184D56
S2144023E03046B847E26A0123164802EB8207314678
S2144023F093402A6800EB87001343134A2B609047AC
S214402400124BE26A1B68DB6A9A420ED9104B0120D7
S2144024101860F8BD4FF0800372B683F31188BFF39F
S2144024206F8FBFF34F8F62B6FEE70020F8BD294698
S2144024300848054B9847E3E7350E4000EC0A402035
S214402440F80A4020800A4020E90D4000740A4020E7
S214402450700B40202C0B402008B530B1044A054B89
S21440246012681B6880E80C0008BD034B984700BF05
S214402470280B40206C0B40202D1D4000F8B500284E
S21440248030D021B30D461F4B044698472B681E4854
S2144024905A1C016831D01D4E2768326897426268E0
S2144024A006D0914204D30126194B98473046F8BDD2
S2144024B08F1ABB42F7D95B1A376801680026134467
S2144024C02B6027606160124B98473046F8BD4FF04E
S2144024D0800372B683F31188BFF36F8FBFF34F8FBD
S2144024E062B6FEE74FF0800372B683F31188BFF3FF
S2144024F06F8FBFF34F8F62B6FEE70026044B9847B8
S2144025003046F8BD190F40006C0B4020280B402089
S214402510650F4000014B01221A607047700B402047
S214402520054B1B6833B1054B1B68002B0CBF0220C4
S2144025300020704701207047400B4020EC0A4020A6
S214402540002846D02DE9F041224CC36A2268D26A60
S214402550934212D28269002A04DB2268D26AC2F110
S2144025600502826103EB83031B4D426905EB83033F
S2144025709A4204D02368DB6AC362BDE8F081071D37
S2144025800646164B3846984708BBF36A03EB830269
S21440259055F82220DAB9124A0120116800FA03F3EE
S2144025A021EA0303136020680123D2F800E039468D
S2144025B0C06A0C4C8340F06200EB800043EA0E0396
S2144025C005EB800013602346BDE8F0411847044AF7
S2144025D0E9E77047740A4020800A4020350E4000E4
S2144025E0F80A4020E90D4000002842D0F8B52B4BB1
S2144025F01B6898420AD04FF0800372B683F3118866
S214402600BFF36F8FBFF34F8F62B6FEE7C36C53B90D
S2144026104FF0800372B683F31188BFF36F8FBFF31A
S2144026204F8F62B6FEE7C16A013B826CC36491423B
S21440263031D0002B2FD1071D0446194B38469847FA
S214402640C8B11848184AA36C0125D2F800E03946AC
S21440265005FA03F6C3F10507E36203EB830346EA94
S2144026600E06A76100EB8300104B1660984728467D
S214402670F8BD00207047E66A0A4806EB86030A4A19
S21440268050F82330002BDED101251368B54023EAED
S21440269005031360D7E70020F8BD00BF740A40204A
S2144026A0350E4000800A4020F80A4020E90D4000E0
S2144026B0044B1A681AB11968CA6C0132CA641868A1
S2144026C0704700BF740A4020914208B500614160DF
S2144026D005D8D21A83699A4207D3012008BD9A4288
S2144026E001D29942F9D2044A00E0044A011D044B43
S2144026F010689847002008BD740B4020780B402097
S214402700010E40004FF0800372B683F31188BFF38A
S2144027106F8FBFF34F8F62B6FEE700BF2DE9F041E3
S214402720134C144B984727681FB1134BBDE8F04134
S2144027301847124E124D3046DFF85C80C047284698
S214402740C047104BDFF854E03A461E601021052083
S2144027500D4BCEF800509847206030B10B4B0C49DB
S2144027609847054BBDE8F04118470A4B984700BFCD
S214402770A80B4020190F4000650F40007C0B4020FE
S214402780900B4020740B402049144000351A4000FE
S214402790DC6D400005274000C90D4000780B402006
S2144027A010B5104B84B098470F4B1B687BB1002088
S2144027B004244FF482720D49039003460290019020
S2144027C000940B480B4CA04708B104B010BD4FF026
S2144027D0800372B683F31188BFF36F8FBFF34F8FBA
S2144027E062B6FEE71D274000A80B4020E46D40007F
S2144027F0F9284000451D400030B585B010B3124C56
S2144028000546206868B105298DE826000BDC0F4B8D
S214402810984702280ED00023206869460C4C1A467A
S214402820A04705B030BD1A4669460023094CA0476C
S21440283005B030BD20680023089A6946044CA0477E
S21440284005B030BD044B9847A80B402021254000DA
S214402850B514400095164000052740002DE9F04786
S214402860204E82B0204FDFF888800CE0DB68DC68C2
S214402870D3F80090251D2846B847636A20469847F7
S214402880E369012B0AD033681A68002AEED1174A4A
S21440289011681360316002B0BDE8F087A36929462D
S2144028A04FF0000EDFF84CA009EB03054A4673468E
S2144028B02046A94504D2656024613068D047E2E7E7
S2144028C0CDF800E07146C0470028DCD14FF08003C9
S2144028D072B683F31188BFF36F8FBFF34F8F62B624
S2144028E0FEE700BF740B4020350E4000780B4020BA
S2144028F0F9274000010E40002DE9F04FDFF8049222
S21440290089B0DFF804A2DFF80482724D724ED9F81F
S21440291000301C68002C4ED0DB681F68D047C0478C
S2144029206E4A03461268904256D36C4A87421060FD
S21440293060D90022F91A2868694B9847694B98472E
S21440294038B94FF08053684A1360BFF34F8FBFF3D8
S2144029506F8F002304A928681A46B0470028D6D0AF
S214402960049B002B1FDB069C636913B1201D5F4B45
S2144029709847C047594B02461B68984235D3049B3C
S2144029805649092B0A60E4D8012101FA03F313F4EF
S214402990047B63D113F0C70F69D19B06D9D5204677
S2144029A0534B9847D5E7059B079906989847049B4D
S2144029B0002BCEDBD7E7D047C047484A03461268CD
S2144029C0824209D84B4A2746444912680B6012682F
S2144029D0B2FA82F25209ADE70393474B9847039BFE
S2144029E03E4A13603F4B9847B3E7434B03909847A4
S2144029F0039AC4E703933B4B9847D9F800203B4BD8
S214402A00D268D2F80CB00BF104009847DBF81C20D3
S214402A10039B012A04D0DBF824305846984798E7B1
S214402A20DBF818101A4658463B463944334CA04704
S214402A300128F0D100233A465846314C00931946B7
S214402A40A0470028E7D14FF0800372B683F3118881
S214402A50BFF36F8FBFF34F8F62B6FEE70599A16154
S214402A6069B3114420461346244CA04771E7059BA2
S214402A702046A169214F1944B84701287FF469AF21
S214402A80636A20469847E369012B7FF462AF059A54
S214402A902046A4695B46CDF800B059462244184CFF
S214402AA0A04700287FF455AF4FF0800372B683F3FB
S214402AB01188BFF36F8FBFF34F8F62B6FEE74FF0BC
S214402AC0800372B683F31188BFF36F8FBFF34F8FC7
S214402AD062B6FEE7A80B40206D184000A40B4020CD
S214402AE05D1A4000B11F400004ED00E0350E400086
S214402AF09D114000780B40205D284000C9264000CC
S214402B00F9274000740B4020211E4000311E400033
S214402B10014B01221A707047B80B4020014B01222E
S214402B201A707047B90B4020014B01221A7070474B
S214402B30BA0B402000B583B0054B002202A91868A6
S214402B40044B41F8042D984703B05DF804FB00BFE2
S214402B50580C4020951740002D4B0022F0B5984267
S214402B6083B004460D4601923AD02A4B98423FD055
S214402B70294B984244D0294B984215D0284B98422E
S214402B8024D0284B9C4217D0274B9C4201D003B000
S214402B90F0BD01AF254E39462046B0470028FAD151
S214402BA0019B2B7003B0F0BD214E29462046B0470E
S214402BB00028FAD103B0F0BD01AF1C4E394620467E
S214402BC0B0470028FAD1019B2B70EBE701AF174EB8
S214402BD039462046B0470028FAD1019B2B70E1E7E2
S214402BE0134E074629463846B0470028FAD1C8E76C
S214402BF00F4E074629463846B0470028FAD1C0E768
S214402C000B4E074629463846B0470028FAD1BBE760
S214402C1000080E40000A0E40001A0E40001C0E40EF
S214402C20004002400080024000C002401D0B4000B1
S214402C301D0A40002A4B984270B50D461CD0294BC1
S214402C40984222D0284B984228D0284B98422ED0E3
S214402C50274B984207D0274B984238D0264B98426D
S214402C602DD0002070BD0446244E29462046B0474D
S214402C700028FAD1012070BD0446214E2946204640
S214402C80B0470028FAD1012070BD04461C4E2946A4
S214402C902046B0470028FAD1012070BD0446184EA1
S214402CA029462046B0470028FAD1012070BD044688
S214402CB0134E29462046B0470028FAD1DAE70446A4
S214402CC00E4E29462046B0470028FAD1D2E70446A1
S214402CD00A4E29462046B0470028FAD1CAE700BF28
S214402CE000080E40000A0E40001A0E40001C0E401F
S214402CF0004002400080024000C00240050B4000F9
S214402D000D0A40002DE9F04F002483B04D4D0A20B7
S214402D10DFF85481C0474C4EDFF850912346224698
S214402D20284600940121C8470C20C0472346224627
S214402D30009430464FF08041C8470A20C047434F72
S214402D4023462246009404214148C8471020C047E5
S214402D50DFF81C91224638464FF08051DFF814B118
S214402D60C847384601224FF08051D847DFF808A1BF
S214402D7038463C224FF08051D0470C20C047224670
S214402D8030464FF00041C847304601224FF00041E0
S214402D90D84730463C224FF00041D0470A20C04733
S214402DA0224628464FF40021C847284601224FF4C1
S214402DB00021D84728463C224FF40021D047254AD8
S214402DC0254C3846009240234FF080521021A047B1
S214402DD0224A3046702300920C214FF00042DFF822
S214402DE09C80A0471E4A7023284600920A214FF432
S214402DF00022DFF88C90A04738464FF080514FF4C1
S214402E008034C0473846C84730464FF00041C04738
S214402E103046C84728464FF40021C0472846C84792
S214402E20104B80224FF480504FF480611C6083F832
S214402E301023186083F80C23196083F80A2303B024
S214402E40BDE8F08F000E0E4000120E4000140E40FB
S214402E5000100E40112B4000D50640001D2B4000B0
S214402E60292B400000E100E0A90840004105400051
S214402E7009054000410440004D0440004106400022
S214402E804506400070B50D46074B04469847294610
S214402E9020B92046054BBDE8704018472046044BF5
S214402EA0BDE87040184700BF350640006904400042
S214402EB06D04400038B50748074B9847830708D548
S214402EC0064C0022064D074BD4E90001A847C4E94A
S214402ED0000138BD30180E4065094000C80B402040
S214402EE0A13440000000F03F0F4B104810B5984703
S214402EF0830702D50E4B01221A700E4C04210B4854
S214402F00A04702210948A04701210848A0470821B8
S214402F100648A04710210548A047234620210348DD
S214402F20BDE81040184700BFF108400060180E404A
S214402F30BB0B4020F50840002DE9F043984685B08D
S214402F40204D0646204B084617460C46DFF8909024
S214402F509847294603AB02AA40460095C847039ABD
S214402F603946304642F48042184B9847029A184BEE
S214402F7039463046B5FBF2F2B2FBF8F2984763B2F8
S214402F80002B16DB134A8021E4B21A4482F8001361
S214402F90012204F01F045B090E4D02FA04F4394680
S214402FA03046102245F823400B4B984705B0BDE805
S214402FB0F083E4B2094A802104F00F0002441176FF
S214402FC0E6E700BF00A3E111A908400069094000F8
S214402FD09109400000E100E099094000FCEC00E067
S214402FE0A9094000000000002DE9F04F2DED028BAE
S214402FF09FED638B83B0684CDFF824B2DFF82492F1
S214403000664F674DDFF82082DFF820A22378002B3A
S21440301054D100230A2238681946624EB047002829
S214403020F4D000220023D5E90001C04700285DD136
S21440303000220023D5E90001C0470028E6D19AF8CF
S2144030400020002AE2D00190574B58489FED4E7B17
S21440305085ED007B9847564B9847564BC3E9000191
S214403060019B554819468AF80030544B98475149B9
S21440307000220023D1E90001C0470028C6D14D4BAD
S2144030804F4ED3E900014F4B98474F4B98474F4B15
S214403090D3E90023B0474E4E00224E4BB0470022A5
S2144030A04D4BB04700224D4BB0474D4B98474D4B8C
S2144030B001464D4898472378002BAAD040214B48DC
S2144030C0D8474FF4FD704A4B98474A4B40214748F3
S2144030D0984701214548C847474B4FF49670984754
S2144030E001214248C8470023237092E7374B384EA9
S2144030F0D3E90001334B98479FED407A06EE900A9D
S21440310000212A48C7EE267AFDEEE77ACDED017A11
S214403110BDF8043001933A4B9847019B2348194623
S214403120384B98474FF0800E374B08224FF44031CB
S2144031301E48C3F88020C3F8802183F803E31A6052
S214403140324B9847012185ED008B8AF800101949CB
S2144031500FA3D3E90023D1E90001B04700222C4B4E
S2144031602C4EB0471E4B98472B4E034600222F212D
S2144031701148B04700211048284B984746E700BF03
S214403180000000000000F03F0000000000000000CB
S2144031909A9999999999C93FB80B4020580C402064
S2144031A0B00B40206D1840005109400030180E40CA
S2144031B019374000C00B40200040014089094000BC
S2144031C0593A4000893D40005D3740001800402095
S2144031D00538400000407540000059400000E03F80
S2144031E0393D400089414000406E4000000E0E4090
S2144031F0010040206D044000D12040000000004700
S21440320011094000F908400000E100E03D09400097
S21440321000404540A1344000392F4000810940001D
S21440322069044000852E4000D53C4000AC0B402051
S21440323008B50A46024B014602489847FEE700BFDB
S21440324089414000586E4000704700BF4FF08003F1
S21440325072B683F31188BFF36F8FBFF34F8F62B69A
S214403260FEE700BF00B5012183B0054B05489847EF
S214403270054B012201901A7003B05DF804FB00BFB5
S214403280A109400000C00040B80B4020F0B50D4BEF
S21440329083B000210C4898470C4B01901A7872B1C5
S2144032A0002200240025DFF830E0094F114606488A
S2144032B0084ECEE900451A70C7E90045B04703B04E
S2144032C0F0BD00BFA109400000400140AC0B4020CB
S2144032D0B00B402089094000C00B402030B51B4B46
S2144032E083B098471A4B98471A4B4FF400421A4CF3
S2144032F01A4D10205A60A847204600224FF08041C1
S214403300174B98470A20A847002340224FF04051C9
S214403310144D1548A847154A2046402300921021D0
S2144033204FF08042124DA84720464FF08041114B47
S21440333098472046104B9847104B4FF480318022D8
S214403340196083F8102303B030BD00BFAD014000C4
S214403350052D400050180E4000140E40A9084000AD
S2144033600905400075054000000E0E40352B400014
S214403370D5064000410640004506400000E100E01A
S21440338080B52B4B8AB098472A4B98472A4E2B4BF2
S21440339000242B4F98472B4D4FF4E1332A48C02149
S2144033A037604FF40062294E294F05600E20049383
S2144033B0284B376005910692079408949847264A0A
S2144033C004A92846254B9847254E2846254B98471E
S2144033D02846254B98473368244D21469868A84789
S2144033E0336821465868A847336821469868A847F6
S2144033F01F4B21460322012098471E4B186098B168
S2144034001D4C00204FF4C0621C49039003460290B6
S214403410019000901A4D1B48A847012801D01A4831
S214403420A0471A4B9847FEE7134C1948A047E8E7D1
S214403430AD014000AD024000080C4020DD324000A7
S214403440352C4000008002400C0C4020040C4020EC
S214403450592B4000A908400080D1F008910A40004E
S21440346020004020F50A4000FD0A40003D4940004B
S21440347049144000580C402089414000186E4000D6
S214403480451D4000E92F40001C6E4000911D400045
S214403490EC6D400081F0004102E000BF83F0004345
S2144034A030B54FEA41044FEA430594EA050F08BF9A
S2144034B090EA020F1FBF54EA000C55EA020C7FEA5E
S2144034C0645C7FEA655C00F0E2804FEA5454D4EBDB
S2144034D05555B8BF6D420CDD2C4480EA020281EAA5
S2144034E0030382EA000083EA010180EA020281EADD
S2144034F00303362D88BF30BD11F0004F4FEA01312F
S2144035004FF4801C4CEA113102D0404261EB41013D
S21440351013F0004F4FEA03334CEA133302D05242C3
S21440352063EB430394EA050F00F0A780A4F101047F
S214403530D5F1200E0DDB02FA0EFC22FA05F28018B9
S21440354041F1000103FA0EF2801843FA05F359419F
S2144035500EE0A5F120050EF1200E012A03FA0EFC1E
S21440356028BF4CF0020C43FA05F3C01851EBE37148
S21440357001F0004507D54FF0000EDCF1000C7EEB65
S21440358000006EEB0101B1F5801F1BD3B1F5001FA3
S2144035900CD349085FEA30004FEA3C0C04F10104C2
S2144035A04FEA445212F5800F80F09A80BCF1004FEB
S2144035B008BF5FEA500C50F1000041EB045141EA6D
S2144035C0050130BD5FEA4C0C404141EB010111F46E
S2144035D0801FA4F10104E9D191F0000F04BF014619
S2144035E00020B1FA81F308BF2033A3F10B03B3F1F7
S2144035F020020CDA0C3208DD02F1140CC2F10C0287
S21440360001FA0CF021FA02F10CE002F11402D8BFE4
S214403610C2F1200C01FA02F120FA0CFCDCBF41EAB0
S2144036200C019040E41AA2BF01EB0451294330BD7F
S2144036306FEA04041F3C1CDA0C340EDC04F114045C
S214403640C4F1200220FA04F001FA02F340EA030033
S21440365021FA04F345EA030130BDC4F10C04C4F179
S214403660200220FA02F001FA04F340EA0300294659
S21440367030BD21FA04F0294630BD94F0000F83F4A3
S214403680801306BF81F480110134013D4EE77FEA86
S214403690645C18BF7FEA655C29D094EA050F08BFD2
S2144036A090EA020F05D054EA000C04BF19461046B3
S2144036B030BD91EA030F1EBF0021002030BD5FEAF7
S2144036C0545C05D14000494128BF41F0004130BD1F
S2144036D014F580043CBF01F5801130BD01F0004573
S2144036E045F0FE4141F470014FF0000030BD7FEAE6
S2144036F0645C1ABF194610467FEA655C1CBF0B46E1
S214403700024650EA013406BF52EA033591EA030FF7
S21440371041F4002130BD00BF90F0000F04BF0021EF
S214403720704730B54FF4806404F132044FF0000522
S2144037304FF0000150E700BF90F0000F04BF00219B
S214403740704730B54FF4806404F1320410F0004501
S21440375048BF40424FF000013EE700BF42004FEAFC
S214403760E2014FEA31014FEA02701FBF12F07F4379
S21440377093F07F4F81F06051704792F0000F14BF76
S21440378093F07F4F704730B54FF4607401F00045BA
S21440379021F0004120E700BF50EA010208BF704711
S2144037A030B54FF000050AE050EA010208BF704706
S2144037B030B511F0004502D5404261EB41014FF46F
S2144037C0806404F132045FEA915C3FF4DCAE4FF073
S2144037D003025FEADC0C18BF03325FEADC0C18BF5A
S2144037E0033202EBDC02C2F1200300FA03FC20FAAB
S2144037F002F001FA03FE40EA0E0021FA02F11444F8
S214403800C1E600BF70B54FF0FF0C4CF4E06C1CEA0C
S21440381011541DBF1CEA135594EA0C0F95EA0C0F81
S21440382000F0DEF82C4481EA030621EA4C5123EAF4
S2144038304C5350EA013518BF52EA033541F4801123
S21440384043F4801338D0A0FB02CE4FF00005E1FBD6
S21440385002E506F00042E0FB03E54FF00006E1FB20
S21440386003569CF0000F18BF4EF0010EA4F1FF0463
S214403870B6F5007F64F5407404D25FEA4E0E6D41A3
S21440388046EB060642EAC62141EA55514FEAC520B4
S21440389040EA5E504FEACE2EB4F1FD0C88BFBCF530
S2144038A0E06F1ED8BEF1004F08BF5FEA500E50F1E1
S2144038B0000041EB045170BD06F0004646EA0101A7
S2144038C040EA020081EA0301B4EB5C04C2BFD4EBD9
S2144038D00C0541EA045170BD41F480114FF0000ED2
S2144038E0013C00F3AB8014F1360FDEBF002001F040
S2144038F0004170BDC4F10004203C35DA0C341BDCBA
S21440390004F11404C4F1200500FA05F320FA04F08B
S21440391001FA05F240EA020001F0004221F00041BF
S21440392010EBD37021FA04F642EB06015EEA430E32
S21440393008BF20EAD37070BDC4F10C04C4F1200562
S21440394000FA04F320FA05F001FA04F240EA020015
S21440395001F0004110EBD37041F100015EEA430EE6
S21440396008BF20EAD37070BDC4F1200500FA05F206
S2144039704EEA020E20FA04F301FA05F243EA020385
S21440398021FA04F001F0004121FA04F220EA020094
S21440399000EBD3705EEA430E08BF20EAD37070BDDA
S2144039A094F0000F0FD101F00046400041EB0101BA
S2144039B011F4801F08BF013CF7D041EA060195F09C
S2144039C0000F18BF704703F00046520043EB030356
S2144039D013F4801F08BF013DF7D043EA0603704743
S2144039E094EA0C0F0CEA135518BF95EA0C0F0CD04E
S2144039F050EA410618BF52EA4306D1D181EA030194
S214403A0001F000414FF0000070BD50EA410606BF8D
S214403A101046194652EA430619D094EA0C0F02D1D2
S214403A2050EA013613D195EA0C0F05D152EA033617
S214403A301CBF104619460AD181EA030101F0004135
S214403A4041F0FE4141F470014FF0000070BD41F07E
S214403A50FE4141F4780170BD70B54FF0FF0C4CF458
S214403A60E06C1CEA11541DBF1CEA135594EA0C0F77
S214403A7095EA0C0F00F0A7F8A4EB050481EA030EC4
S214403A8052EA03354FEA013100F088804FEA0333AB
S214403A904FF0805545EA131343EA12634FEA022279
S214403AA045EA111545EA10654FEA00260EF000413A
S214403AB09D4208BF964244F1FD0404F5407402D28C
S214403AC05B084FEA3202B61A65EB03055B084FEA1D
S214403AD032024FF480104FF4002CB6EB020E75EB1A
S214403AE0030E22BFB61A754640EA0C005B084FEA42
S214403AF03202B6EB020E75EB030E22BFB61A7546BF
S214403B0040EA5C005B084FEA3202B6EB020E75EB09
S214403B10030E22BFB61A754640EA9C005B084FEA81
S214403B203202B6EB020E75EB030E22BFB61A75468E
S214403B3040EADC0055EA060E18D04FEA051545EA7D
S214403B4016754FEA06164FEAC30343EA52734FEA26
S214403B50C2025FEA1C1CC0D111F4801F0BD141EA9F
S214403B6000014FF000004FF0004CB6E711F4801F04
S214403B7004BF01430020B4F1FD0C88BFBCF5E06FE4
S214403B803FF6AFAEB5EB030C04BFB6EB020C5FEAF4
S214403B90500C50F1000041EB045170BD0EF0004E49
S214403BA04EEA113114EB5C04C2BFD4EB0C0541EA7B
S214403BB0045170BD41F480114FF0000E013C90E678
S214403BC045EA060E8DE60CEA135594EA0C0F08BF3C
S214403BD095EA0C0F3FF43BAF94EA0C0F0AD150EA3B
S214403BE001347FF434AF95EA0C0F7FF425AF1046CE
S214403BF019462CE795EA0C0F06D152EA03353FF4F6
S214403C00FDAE1046194622E750EA410618BF52EA72
S214403C1043067FF4C5AE50EA41047FF40DAF52EA46
S214403C2043057FF4EBAE12E74FF0FF3C06E000BFE3
S214403C304FF0010C02E000BF4FF0010C4DF804CDF0
S214403C404FEA410C7FEA6C5C4FEA430C18BF7FEAB0
S214403C506C5C1BD001B050EA410C0CBF52EA430CDE
S214403C6091EA030F02BF90EA020F0020704710F15E
S214403C70000F91EA030F58BF994208BF90422CBFED
S214403C80D8176FEAE37040F0010070474FEA410CE6
S214403C907FEA6C5C02D150EA013C07D14FEA430C04
S214403CA07FEA6C5CD6D152EA033CD3D05DF8040B75
S214403CB0704700BF8446104662468C4619466346A7
S214403CC000E000BF01B5FFF7B7FF002848BF10F17E
S214403CD0000F01BD4DF808EDFFF7F4FF0CBF0120C3
S214403CE000205DF808FB00BF4DF808EDFFF7EAFF3F
S214403CF034BF012000205DF808FB00BF4DF808EDFA
S214403D00FFF7E0FF94BF012000205DF808FB00BFEE
S214403D104DF808EDFFF7CEFF94BF012000205DF878
S214403D2008FB00BF4DF808EDFFF7C4FF34BF012085
S214403D3000205DF808FB00BF4FEA410212F5001272
S214403D4015D211D56FF47873B3EB625212D94FEA9D
S214403D50C12343F0004343EA505311F0004F23FA87
S214403D6002F018BF404270474FF00000704750EADC
S214403D70013005D111F0004008BF6FF00040704799
S214403D804FF00000704700BF4FEA4102B2F1E043F7
S214403D9024BFB3F5001CDCF1FE5C0DD901F0004CED
S214403DA04FEAC0024CEA5070B2F1004F40EB83003D
S214403DB008BF20F00100704711F0804F21D113F169
S214403DC03872BCBF01F00040704741F480114FEAA2
S214403DD05252C2F11802C2F1200C10FA0CF320FA2B
S214403DE002F018BF40F001004FEAC1234FEAD32348
S214403DF003FA0CFC40EA0C0023FA02F34FEA4303B2
S214403E00CCE77FEA625307D150EA01331EBF4FF03A
S214403E10FE4040F44000704701F0004040F0FE4055
S214403E2040F40000704700BF53B94AB9002908BFA4
S214403E3000281CBF4FF0FF314FF0FF3000F07AB93A
S214403E40ADF1080C6DE904CE00F006F8DDF804E0AC
S214403E50DDE9022304B070472DE9F0478C460D4655
S214403E600446089E002B51D18A4217466DD9B2FAB5
S214403E7082FEBEF1000F0BD0CEF1200C01FA0EF5FB
S214403E8020FA0CFC02FA0EF74CEA050C00FA0EF487
S214403E904FEA174A250CBCFBFAF81FFA87F90AFBCB
S214403EA018CC45EA0C4508FB09F3AB420AD9ED1994
S214403EB008F1FF3280F02381AB4240F22081A8F126
S214403EC002083D44ED1AA4B2B5FBFAF00AFB1055C1
S214403ED044EA054400FB09F9A14509D9E41900F173
S214403EE0FF3380F00A81A14540F2078102383C4406
S214403EF0A4EB090440EA08400021002E61D024FAD1
S214403F000EF4002334607360BDE8F0878B4207D917
S214403F10002E54D0002186E821000846BDE8F087F0
S214403F20B3FA83F1002940F08E80AB4202D382423E
S214403F3000F2FA80841A65EB03050120AC46002E99
S214403F403FD086E81010BDE8F08712B90127B7FBCE
S214403F50F2F7B7FA87FEBEF1000F34D1EB1B3A0CEE
S214403F601FFA87FC0121B3FBF2F8250C02FB18333D
S214403F7045EA03450CFB08F3AB4207D9ED1908F1B7
S214403F80FF3002D2AB4200F2D1808046ED1AA3B297
S214403F90B5FBF2F002FB105543EA05440CFB00FC6F
S214403FA0A44507D9E41900F1FF3302D2A44500F234
S214403FB0B8801846A4EB0C0440EA08409DE731461A
S214403FC03046BDE8F087CEF1200405FA0EF307FA36
S214403FD00EF720FA04F83A0C25FA04F448EA0308E7
S214403FE0B4FBF2F14FEA184502FB11441FFA87FC76
S214403FF045EA044501FB0CF3AB4200FA0EF409D93E
S214404000ED1901F1FF3080F08A80AB4240F28780A4
S21440401002393D44EB1A1FFA88F5B3FBF2F002FB77
S214404020103345EA034500FB0CF3AB4207D9ED19C4
S21440403000F1FF386FD2AB426DD902383D44EB1ADF
S21440404040EA01418FE7C1F1200722FA07F88B408A
S21440405005FA01F448EA030320FA07FE4FEA134C38
S214404060FD404EEA040EB5FBFCF94FEA1E440CFB3D
S21440407019551FFA83F844EA054509FB08F4AC4293
S21440408002FA01F200FA01FA08D9ED1809F1FF30F8
S21440409043D2AC4241D9A9F102091D442D1B1FFA57
S2144040A08EFEB5FBFCF00CFB10554EEA054400FBBB
S2144040B008F8A04507D9E41800F1FF3529D2A045F5
S2144040C027D902381C4440EA0940A4EB0804A0FB68
S2144040D002894C45C6464D4615D312D056B1BAEB6A
S2144040E00E0364EB050404FA07F7CB401F43CC40AD
S2144040F0376074600021BDE8F0871846F8E69046C1
S214404100E0E6C245EAD2B8EB020E69EB0305013899
S214404110E4E72846D7E7404691E78146BEE70146B2
S21440412078E702383C4445E7084608E7A8F1020825
S2144041303D442BE7704700BF70B50F4E0F4D761BC2
S214404140B61018BF002405D0013455F8043B9847F4
S214404150A642F9D10A4E0B4D761B02F03DFFB61033
S21440416018BF002406D0013455F8043B9847A642B1
S214404170F9D170BD70BD00BFE46F4000E46F4000F1
S214404180EC6F4000E46F40000FB400B5074983B0C1
S21440419004AB086853F8042B8168019300F05EFD79
S2144041A003B05DF804EB04B0704700BF2000402029
S2144041B0024B0146186800F00BB800BF20004020B4
S2144041C0024B0146186801F065BE00BF2000402043
S2144041D02DE9F04F01F10B06162E83B0054640F24E
S2144041E09E8036F0070600F1BD80B14200F2BA80EC
S2144041F000F086FBB6F5FC7FC0F09382730A00F0B1
S214404200B880042B00F27981B30903F1390003F139
S214404210380EC300BF4F3B44A3F108015C68A1427F
S21440422006D10CE0002A80F2AA80E468A14206D0BB
S214404230636823F003039A1B0F2AF3DD70463C693C
S214404240DFF8E4E2744500F0AB81636823F00303D3
S2144042509A1B0F2A00F39081002AC7F814E0C7F88B
S21440426010E080F29D80B3F5007F80F06181DB082E
S21440427003F1010C99107A6857F83C80C4F808801E
S21440428001238B4007EBCC0113430839E1607B6088
S21440429047F83C40C8F80C408210012494409C42A9
S2144042A000F28B801C4206D120F0030064001C42C2
S2144042B000F10400FAD007EBC009CC468046DCF893
S2144042C00C309C4507D16DE1002A80F27B81DB688B
S2144042D09C4500F06781596821F003018A1B0F2A2C
S2144042E0F2DDD3F80CC0D3F8088000939C1928461A
S2144042F046F0010642F001055E60C8F80CC0CCF8F6
S21440430008807C613C61C4F80CE0C4F808E0656055
S2144043105A5000F0FBFA009B03F108041EE01029F7
S21440432020D800F0EDFA102618230220794F3B449F
S214404330A3F108025C68944200F03D816368E1683E
S214404340A66823F00303234428465A68F16042F0E7
S21440435001028E605A6000F0D9FA0834204603B055
S214404360BDE8F08F00240C2320462B6003B0BDE848
S214404370F08F40204FF400734FF03F0E4AE723443F
S214404380E1685A68A66842F00102F16028468E60ED
S2144043905A6000F0BBFA0834204603B0BDE8F08F00
S2144043A0234428465A6842F001025A6000F0AEFAAA
S2144043B00834204603B0BDE8F08FBC68636823F03D
S2144043C00308B04504D3A8EB06030F2B00F3858003
S2144043D0DFF85891504BD9F800201B68013233441F
S2144043E004EB080A00F0558103F580530F3323F49D
S2144043F07F6B2BF00F0B5946284600F08DFA411C78
S214404400024600F0FC80824500F2F780434B196874
S2144044105944196000F04D81D9F8000001301BBFA7
S214404420A2EB0A0A5144C9F80020196012F00701AD
S21440443000F01581C1F10800C1F5805102440831F1
S21440444002EB0B09C9F30B09A1EB090949462846BB
S2144044500193009200F060FA431C9DE80C0000F0C7
S2144044604381801A484440F001001968BA604944C4
S214404470BC425060196017D0B8F10F0F40F2FB8075
S2144044806068A8F10C0222F0070204EB020E00F06E
S21440449001004FF0050C10430F2A6060CEF804C0B0
S2144044A0CEF808C000F217811D4BBC681A689142CE
S2144044B088BF19601B4B1A689142626888BF1960B2
S2144044C022F003029642A2EB060301D80F2B04DC2F
S2144044D0284600F01BFA002440E7A21943F00103E7
S2144044E046F0010666602846BA60536000F00EFA51
S2144044F00834204603B0BDE8F08F142B71D9542BF6
S21440450000F2A380330B03F16F0003F16E0EC3007D
S21440451080E600BF50044020000C4020D00B4020D6
S214404520F80B4020FC0B4020580440205808402000
S2144045305A0A042A5BD9142A00F2AE8002F15C01C2
S214404540C9005B3207EB010C7958ACF1080C8C457E
S21440455000F088804A6822F00302934273D289684A
S2144045608C45F7D1DCF80C207B68E260C4F808C0C4
S2144045709460CCF80C408FE6A11946F0010C42F04E
S2144045800106C4F804C0284679613961C1F80CE0D8
S214404590C1F808E04E60E25000F0B8F90834DDE6B5
S2144045A07B6879E608F1010818F0030F0CF1080C57
S2144045B07FF485AE2DE0DC68A34208BF02303FF4AE
S2144045C03EAEBBE619441C464A68DB6854F8086FA2
S2144045D042F001024A602846F3609E6000F096F979
S2144045E0BCE603F15C0003F15B0EC30012E69A09D9
S2144045F002F13901C9003832A4E7BC4254D0BC6845
S214404600626822F003025DE759F80839994540F0A0
S214404610868010F0030F00F1FF30F5D17B6823EA67
S21440462004037B6064009C423FF6C7AE002C3FF418
S214404630C4AE1C4240467FF43EAE64001C4200F1CD
S2144046400400FAD037E68C468CE7B3F5AA7F15D837
S214404650F30B03F1780003F1770EC300DAE54FF46D
S2144046608051EDE67B689210012101FA02F2134375
S2144046707B60624679E70123536029E740F2545253
S214404680934222D8B30C03F17D0003F17C0EC300A5
S214404690C0E503F1100BAEE6542A29D81A0B02F1F6
S2144046A06F01C9006E324DE7204B196859441960B6
S2144046B0B2E6CAF30B0000287FF4AEAE08EB0B035D
S2144046C0BA6843F001035360EEE67F204FF47E73F2
S2144046D04FF07E0E9EE504F108012846009301F057
S2144046E0D9FB009B1968DFE601204FF00009BCE6C5
S2144046F0B2F5AA7F05D8DA0B02F17801C900773205
S21440470020E740F254518A4205D89A0C02F17D01C6
S214404710C9007C3216E74FF47E717E2212E77B6832
S21440472080E7F00806F1080300E600BFD00B402003
S214404730844641EA000313F003036DD1403A41D367
S21440474051F8043B40F8043B51F8043B40F8043B26
S21440475051F8043B40F8043B51F8043B40F8043B16
S21440476051F8043B40F8043B51F8043B40F8043B06
S21440477051F8043B40F8043B51F8043B40F8043BF6
S21440478051F8043B40F8043B51F8043B40F8043BE6
S21440479051F8043B40F8043B51F8043B40F8043BD6
S2144047A051F8043B40F8043B51F8043B40F8043BC6
S2144047B051F8043B40F8043B51F8043B40F8043BB6
S2144047C0403ABDD2303211D351F8043B40F8043B56
S2144047D051F8043B40F8043B51F8043B40F8043B96
S2144047E051F8043B40F8043B103AEDD20C3205D366
S2144047F051F8043B40F8043B043AF9D2043208D05E
S214404800D2071CBF11F8013B00F8013B01D30B88CF
S21440481003806046704700BF082A13D38B078DD0AD
S21440482010F003038AD0C3F10403D21ADB071CBF7F
S21440483011F8013B00F8013B80D331F8023B20F8E9
S214404840023B7BE7043AD9D3013A11F8013B00F822
S214404850013BF9D20B7803704B7843708B788370AA
S2144048606046704770B4860746D0541E002A41D032
S214404870CAB2034602E014F1FF343BD303F8012BDF
S2144048809D07F8D1032C2ED9CDB245EA05250F2C2D
S21440489045EA054519D903F110022646103E0F2E6B
S2144048A042F8105C42F80C5C42F8085C42F8045C43
S2144048B002F11002F2D8A4F1100222F00F0204F026
S2144048C00F041032032C13440DD91E462246043AD8
S2144048D0032A46F8045BFAD8221F22F00302043269
S2144048E0134404F003042CB1C9B21C4403F8011B62
S2144048F09C42FBD170BC704714460346C2E700BFDB
S214404900014801F061BD00BF800C4020014801F025
S2144049105DBD00BF800C402038B5074C00230546DF
S21440492008462360FCF720FA431C00D038BD2368B5
S214404930002BFBD02B6038BD940C402000290CBFC8
S214404940022200224FF4806300F000B82DE9F043C5
S214404950614C256883B004460F4690461E4615B106
S214404960AB6B002B64D0B8F1020F06D0B8F1010F44
S21440497000F29F80002EC0F29C80636ED80734D52C
S2144049802146284601F008F9216B41B104F1400365
S214404990994202D0284601F07DFA00232363B4F9F9
S2144049A00C300022A26162601A063AD423F44A63AD
S2144049B023F00303B8F1020FA3811DD001AB6A4672
S2144049C02146284601F004FDA3891843A081002E05
S2144049D032D1009E3046FFF7EBFB074600286BD0EF
S2144049E0A38943F08003A38128E0A3899905C7D40F
S2144049F0A06D01F0E9FCC3E70025616E002604F1D6
S214404A00430243F002030120A660CE07A381226042
S214404A102261606101D498053ED5284603B0BDE8C2
S214404A20F0832169284601F035FAB4F90C30BDE729
S214404A30284601F009F996E7002FCBD0AB6B002B48
S214404A4033D0009BB4F90C2027609E421CBF42F432
S214404A500062A281B8F1010F04BF42F00102A281B8
S214404A6092B212F00803276166610ED0D1071AD5BC
S214404A70656E7642002315F00105A661A36009D055
S214404A800025284603B0BDE8F083A360656E15F0A8
S214404A900105F5D19305C0D4A06D01F097FC2846DA
S214404AA003B0BDE8F083A660F0E7284601F0CCF8F6
S214404AB0C7E74FF0FF35B0E7DDF80090B14504D0CA
S214404AC04846FFF775FB074620B9B4F90C304FF05F
S214404AD0FF3592E74E4683E7200040200000000066
S214404AE00000000000000000000000000000000081
S214404AF00000000000000000000000000000000071
S214404B0090F800F06DE9024520F007016FF0000CC8
S214404B1010F0070491F820F040F049804FF0000470
S214404B206FF00700D1E9002391F840F000F108004B
S214404B3082FA4CF2A4FA8CF283FA4CF3A2FA8CF383
S214404B404BBBD1E9022382FA4CF200F10800A4FAEA
S214404B508CF283FA4CF3A2FA8CF3E3B9D1E904233E
S214404B6082FA4CF200F10800A4FA8CF283FA4CF375
S214404B70A2FA8CF37BB9D1E9062301F1200182FA2F
S214404B804CF200F10800A4FA8CF283FA4CF3A2FA35
S214404B908CF3002BC6D0002A04BF04301A4612BA43
S214404BA0B2FA82F2FDE8024500EBD2007047D1E946
S214404BB0002304F00305C4F100004FEAC50514F0D5
S214404BC0040F91F840F00CFA05F562EA05021CBFA6
S214404BD063EA050362464FF00004A9E72DE9F84F63
S214404BE04B6E9C0493462FD59368126853B30E467B
S214404BF0074602F1080919E920045FEA9A0817D027
S214404C00043D002401E0A04510D0324655F8041F6C
S214404C10384601F0BBF8431C04F10104F3D10023ED
S214404C20CBF80830CBF80430BDE8F88FDBF8083016
S214404C302AF0030AA3EB0A03CBF8083009F1080967
S214404C40002BD8D10020EAE701F00AFA0023CBF87F
S214404C500830CBF80430BDE8F88F00BF2DE9F04FA0
S214404C60ADB01D468B4690460793069018B1836BB1
S214404C70002B00F0F380DBF86430BBF90C00DF0754
S214404C8081B202D48E0540F1FC808C040AD4DBF855
S214404C90643040F4005123F40053ABF80C10CBF8CA
S214404CA0643089B2080740F1B380DBF81030002B3F
S214404CB000F0AE8001F01A030A2B00F0B580002306
S214404CC00DF170090B93119310930393CDF83C901C
S214404CD0CA46CDF810B098F800304446FBB1252BB4
S214404CE002D11CE0252B03D014F8013F002BF9D14C
S214404CF0A4EB08059DB1109B119ACAF800800133B9
S214404D002A44072BCAF80450119210937ADD002AE1
S214404D1040F0B084039B10922B44CA4603932378FA
S214404D20002B00F0E08300204FF000038DF8373072
S214404D3004F1010862780546064603464FF0FF3404
S214404D4008F10108A2F12001582900F2DE82DFE8CE
S214404D5011F02102DC02DC022902DC02DC02DC0269
S214404D60DC02DC02DC0289029502DC02A200BD0203
S214404D70DC029F01A401A401A401A401A401A40192
S214404D80A401A401A401DC02DC02DC02DC02DC0299
S214404D90DC02DC02DC02DC02DC02B201DC02DC0209
S214404DA0DC02DC02DC02DC02DC02DC02DC02DC02CE
S214404DB09701DC02DC02DC02DC02DC029B01DC0246
S214404DC0DC025302DC02DC02DC02DC02DC02DC0237
S214404DD0DC02DC02DC02DC025A021B02DC02DC02E1
S214404DE0DC026E021B02DC02DC027302DC02F5010E
S214404DF082010902D702DC029A02DC02A700DC022A
S214404E00DC022E020AF1080A039B2B44039386E732
S214404E105946069800F0ACFD18BBBBF80C1001F0E4
S214404E201A030A2B7FF44BAFBBF90E30002BFFF66C
S214404E3046AFDBF86430DB0705D48F0503D4DBF8D8
S214404E40580001F0C3FA2B4642465946069800F0F1
S214404E504DFD039003982DB0BDE8F08F00F0F4FEB2
S214404E6009E7DBF86430D90704D4BBF80C309A0560
S214404E7040F1AA844FF0FF33039303982DB0BDE86A
S214404E80F08FDBF8580001F09FFABBF90C0081B2B6
S214404E90FBE67642079243F0040398F800204FE77B
S214404EA008969E0600F150840799DD060A4600F1F2
S214404EB0EF83580640F1EC830E8804310027012228
S214404EC007914FF000018DF837100025611C00F067
S214404ED0168123F08001029156EA070140F01481C2
S214404EE0002C40F05C83002A40F0B78313F00103A7
S214404EF0059300F057840DF1B00B30230BF8413D7D
S214404F00059BA342B8BF234601930DB101330193DD
S214404F10029B13F00203099302D0019B02330193D4
S214404F20029B13F084030A9340F01782089B019A71
S214404F309D1A002D40F31182102D40F39084109B53
S214404F40119AC44ED6461027A2461946069C07E03C
S214404F5001F1020C0EF1080E0146103D102D11DD38
S214404F60481C1032072811928EE8C0001090EFDDE2
S214404F70002A40F0E481103D102D11464FF0010C00
S214404F80CE46EDDC54466146F2462A440729119245
S214404F90CAF80060CAF80450109100F3EC829DF8FD
S214404FA037500AF1080A481C002D40F0DE81099B64
S214404FB0002B00F0F88102320EA902230728119236
S214404FC010908AE80A0040F3EA81002A40F08C8379
S214404FD00A9B802B4FF001001146CA4640F0E781FD
S214404FE0089B019D5E1B002E40F3E181102E9A4DDA
S214404FF040F35084D4461027A246069C07E001F1B1
S214405000020E0CF1080C0146103E102E11DD481C15
S2144050101032072811928CE8A0001090EFDD002A8D
S21440502040F09D82103E102E4FF0010E1146CC46A9
S214405030EDDC5446E2463244BEF1070F11928AE850
S2144050406000CDF840E000F369830AF1080A0EF1EB
S21440505001007146ABE1089613F0200240F08C83C5
S21440506013F0100140F01A8313F0400200F016834C
S21440507007980A460146043106880791002720E72C
S214405080089643F01003E7E7089643F0100308E756
S21440509043F0800398F8002052E6A2F13001002643
S2144050A018F8012B06EB860601EB4606A2F1300106
S2144050B00929F5D946E60896002840F0088443F0CA
S2144050C010039E0600F14C83DD0600F1F38258067D
S2144050D040F1F082079DB5F900602A46F717043282
S2144050E0304639460792002871F10002C0F25D83CF
S2144050F0611C9DF837504FF001027FF4EAAE56EA45
S214405100070100F04D820293012A00F08C82022AA9
S21440511040F05C820B98CB46330906F00F0143EA19
S21440512007733A091E461746435C0BF8013D56EA9C
S2144051300703F1D1A9EB0B030593E1E6002840F005
S214405140C083990600F16783DA0600F1F1805B06BA
S21440515040F1EE80079A136804320792BDF80C209F
S2144051601A80B8E507983D4A08960B92066878225A
S214405170302104308DF8392043F002030790002791
S2144051808DF8381002229CE60896002899D08DF8B3
S214405190375096E798F80020002D7FF4D1AD0120D7
S2144051A02025CDE543F0010398F80020C8E5089691
S2144051B0002840F0938329490B919F0600F1E8822E
S2144051C00798DE06014600F170825D0640F16D826A
S2144051D00431068807910027D80740F1228256EA14
S2144051E0070100F01E8230218DF8392043F002037B
S2144051F08DF83810022264E60896002840F06B834B
S21440520017490B91D9E7079908960A688DF8482000
S2144052104FF000000A468DF8370004320120019016
S214405220079205900DF1480B0293002470E643F078
S214405230400398F8002083E598F800206C2A03BFC6
S21440524098F8012043F0200308F1010843F01003CA
S21440525076E500BFA46E4000B46E4000886E400005
S214405260746E400007990E680A46002E02F104024A
S214405270FFF60FAE079298F8002061E598F80020F8
S21440528001202B255CE507990896D1F800B04FF031
S21440529000028DF837200E1DBBF1000F00F0E582AE
S2144052A0671C00F0C482224600215846019301F054
S2144052B01FF9019B002800F0E582A0EB0B02059247
S2144052C0079602939DF83750002419E698F8002078
S2144052D02A2A08F1010700F0E982A2F130010929E3
S2144052E0B8464FF000043FF62DAD18F8012B04EBFE
S2144052F0840401EB4404A2F130010929F5D921E5E3
S21440530043F0200398F800201AE50896002840F05D
S214405310DB82002A00F0E78001218DF848204FF01C
S214405320000201918DF8372005910DF1480B7BE77F
S214405330079A136804320792039A1A60CBE40FAABE
S21440534004992046FFF74AFC002840F0398110991E
S214405350119A01F1010CCE46FFE51099119A481CAE
S2144053609DF83750002D3FF422AE01320DF137053F
S2144053700121072811921090CAF80050CAF804106C
S21440538040F30881002A40F0BC81099B002B3FF483
S2144053901FAE0EAB022208461C931D92CA4601461B
S2144053A00AF1080A01300A9B802B3FF419AE059B90
S2144053B0E41A002C2EDD102CB34D1EDDD6461026EA
S2144053C0069FDDF810A006E0881C0EF1080E194670
S2144053D0103C102C10DD4B1C1032072B11928EE81F
S2144053E060001093F0DD002A65D1103C102C4FF081
S2144053F001001146CE46EEDCF246224407281192C2
S214405400CAF80050CAF80440109000F385800AF1AC
S214405410080A01300599CAF800B00A4407281192D4
S214405420CAF80410109040F38280002A40F0188199
S214405430029B1092580735D5089B01995C1A002CA0
S21440544040F3E780CA46102C40F3188210998F4EDE
S214405450069FDDF810B0102506E0881C0AF1080A01
S2144054601946103C102C11DD4B1C1032072B1192A4
S214405470CAF80060CAF804501093EEDD42BB103CF8
S214405480102C4FF001001146CA46EDDC2244072896
S2144054901192CAF80060CAF80440109051DD002A04
S2144054A040F09B81039B089A01998A42ACBF9B18A7
S2144054B05B1803934EE00FAA51463846FFF78EFB23
S2144054C0002840F03F811099119A481CCE467FE74D
S2144054D00FAA59463846FFF781FB60B91099119AD2
S2144054E0481CCA46BDE7119BDDF810B0002B40F0C3
S2144054F0D48100231093DBF8643013F0010FBBF81F
S2144055000C3002D19A0540F1DE805B063FF5B2AC26
S21440551003982DB0BDE8F08F002A40F00681059A2A
S2144055201D9201231192CDF870B01093CA460AF12D
S214405530080A029B590704D5089B01995C1A002C5F
S21440554081DC039B089901988142ACBF5B181B180D
S214405550039372BB00231093CA46FFF7BCBB0FAA47
S21440556004992046FFF73AFB50BB1099119A01F177
S214405570010ECC4648E5002A40F040819DF83710A1
S214405580002900F01B8101220DF1370110461D92C3
S2144055901C91CA4601460AF1080A013007E5029BFB
S2144055A0012A00F09880022A0DD102930026002797
S2144055B0B0E50FAA04990698FFF710FB0028C9D05B
S2144055C0DDF810B097E7029300260027494600E032
S2144055D05946F20842EA4772F80806F007030746BB
S2144055E01646303356EA070201F8013C01F1FF3B0C
S2144055F0EED1029AD6077FF59DAD302B3FF49AAD9B
S214405600023930230BF8013CA9EB010305938B4686
S21440561076E4039B089A8A42ACBF9B185B180393B8
S21440562098E702224DE4002F08BF0A2E52D3CB46FD
S214405630304639460A220023FEF7F6FB30320BF896
S214405640012D3046394600230A22FEF7EDFB06467A
S2144056500F4656EA0703EBD16CE50594CB464FE47C
S2144056600FAA04990698FFF7B9FA0028A8D1119A0C
S214405670CA465EE70FAA04990698FFF7AFFA0028D5
S2144056809ED1CA46FFF7C0BBB46E4000A46E400031
S2144056900431166807910122002712E40798014654
S2144056A004310668079100270BE40E680431079121
S2144056B0002791E507990E680A46F71704320792C5
S2144056C0304639460FE5DBF8580000F07FFEBBF861
S2144056D00C301AE7029B02930DF1B00B30360123D3
S2144056E00BF8416D05930BE40FAA04990698FFF753
S2144056F075FA00287FF464AF1099119A481CCA4680
S21440570051E60FAA04990698FFF768FA00287FF436
S21440571057AF1099119A481CCA4648E4002A40F0F0
S214405720918001201146CA4641E60FAA0499069880
S214405730FFF754FA00287FF443AF1098119A0130CF
S214405740CA4667E6D346D6E6079E073626F00702E1
S21440575002F10801D2E9006707910122FFF7B1BBC9
S214405760079E073626F00706D6E9000106F108022E
S214405770079206460F46B6E4079E073626F007020F
S21440578002F10801D2E9006707910022FFF799BBB2
S214405790079E073626F0070101F108000790D1E979
S2144057A0006719E5CB46FFF7ABBB2D25764267EB86
S2144057B047078DF837500122FFF788BB099BB3B9DE
S2144057C011460120CA46F2E5DBF8580000F0FEFD1F
S2144057D04FF0FF330393FFF750BB0FAA0499069888
S2144057E0FFF7FCF900287FF4EBAE119AA9E60EAB62
S2144057F002221C931D920120CA46D0E50FAA0499A6
S2144058000698FFF7EBF900287FF4DAAE1099119A64
S214405810481CCA46A4E5079A03991368CD1708465C
S214405820043229460792C3E90001FFF754BA5846A6
S21440583007960293FFF764F9002405909DF83750C9
S214405840FFF75EBB0FAA04990698FFF7C7F9002832
S2144058507FF4B6AE1099119A481CCA46A7E510992F
S214405860119A204E0131FFF790BB062C28BF062424
S214405870059407960194DFF870B0D5E41098194E59
S214405880013003E605949DF8375007960293044688
S214405890FFF736BB8646FFF7CEBB06980FAA59469B
S2144058A0FFF79CF900283FF424AE24E6079998F8C1
S2144058B001200C68043144EAE474B8460791FFF7C7
